:020000041000EA
:1000000000B5324B212058609868022188439860DF
:10001000D860186158612E4B002199600221596106
:100020000121F02299502B49196001219960352056
:1000300000F044F80222904214D00621196600F024
:1000400034F8196E01211966002018661A6600F04E
:100050002CF8196E196E196E052000F02FF8012189
:100060000842F9D1002199601B49196000215960AB
:100070001A491B48016001219960EB211966A021F2
:10008000196600F012F800219960164914480160C1
:100090000121996001BC002800D000471248134993
:1000A000086003C880F30888084703B5996A0420EC
:1000B0000142FBD001200142F8D103BD02B5186610
:1000C0001866FFF7F2FF186E186E02BD00000240BE
:1000D000000000180000070000035F00212200005C
:1000E000F4000018222000A00001001008ED00E03C
:1000F00000000000000000000000000074B24E7A12
:1001000000200420F7010010CB010010CD010010E9
:10011000C9010010C9010010C9010010C901001077
:10012000C9010010C9010010C9010010CF01001061
:10013000C9010010C9010010D1010010D301001045
:10014000C1010010C1010010C1010010C101001067
:10015000C1010010C1010010C1010010C101001057
:10016000C1010010C1010010C1010010C101001047
:10017000C1010010C1010010C1010010C101001037
:10018000C1010010C1010010C1010010C101001027
:10019000C1010010C1010010C1010010C101001017
:1001A000C1010010C1010010C1010010C101001007
:1001B000C1010010C1010010C1010010C1010010F7
:1001C000EFF30580103800BE00BE00BE00BE00BECA
:1001D00000BE00BEF2EB88718C020010A802001075
:1001E0003802001090A31AE700202149086006C8D1
:1001F00081F3088810471F480068002801D00020BC
:10020000F3E70DA40ECC002902D000F012F8F9E7B4
:1002100019491A4A002000E001C19142FCD1184955
:100220008847184988471849884700BEFDE701C933
:1002300001C29A42FBD37047A8020010C000002000
:10024000BC890020A48B0010C08900208CA900204C
:1002500070AB0010000004200000042070AB001000
:10026000001004200010042000000000704700006F
:1002700008ED00E0000000D08CA90020ECAE0020CA
:0C0280007553002095010020355300202C
:10028C00B09B0020BC9B0020C89B0020D49B00206E
:0C029C00E09B0020EC9B0020F89B002061
:1002A80070B50478002C17D0002120220D26114BA0
:1002B80002255D5F104B00290FD1A54214D0996922
:1002C8000A42FCD11C60017801300D394C42614171
:1002D8000478C9B2002CEED170BD99690A42F1D0F8
:1002E80099690A42F9D1EDE799690A42FCD11E6081
:1002F800E5E7C046E4AE0020008003400FB470B5C7
:10030800B2B036AB04CB02AEC0213000019305F089
:100318009DF83478002C18D03000002120220D26BA
:10032800124B02255D5F124B002913D1A54218D04C
:1003380099690A42FCD11C60017801300D394C42A0
:1003480061410478C9B2002CEED132B070BC08BC4F
:1003580004B0184799690A42EDD099690A42F9D15F
:10036800E9E799690A42FCD11E60E1E7E4AE0020A2
:1003780000800340F0B5DE46454657464E46E1212B
:10038800E0B5BE4CF7B02000490202F057F902214F
:10039800082001F05DFC0221092001F059FC200031
:1003A80000230122082102F0D9F9C022236B200082
:1003B800FA2412021340B24A0121136002F00AFA29
:1003C80001F068F9AF4DA40021002800FFF796FF5F
:1003D800002C07D101F03AFC002808D1AA48FFF701
:1003E8005FFFFEE7642002F021F8643CECE7A748D1
:1003F800FFF756FF01F06CF9002800D1E5E001F0A5
:100408005BF90200A248A3490690FFF777FFA248CC
:10041800FFF746FFA14B1027049302229B5E974CDF
:100428000293002303931D009D4B05939D4B984613
:100438009D4B07939D4B24939D4B08939D4B259370
:100448009D4B0C939D4B13939D4B2B939D4B159359
:100458009D4B2C939D4B12939D4B0A939D4B109350
:100468009D4B2D939D4B3D939D4B3E939D4B0993E7
:100478009D4B3F939D4B40939D4B1B939D4B1C93D2
:100488009D4B4B939D4B0B939D4B4C939D4B0E93C8
:100498009D4B0F939D4B39939D4B3A939D4B1193D5
:1004A8009D4B3B939D4B3C939D4B47939D4B359365
:1004B8009D4B36939D4B34939D4B48939D4B18937E
:1004C8009D4B16939D4B17939D4B49939D4B37938B
:1004D8009D4B38939D4B1D939D4B4A939D4B1E936B
:1004E8009D4B51939D4B45939D4B46939D4B4D93EF
:1004F8009D4B4E939D4B52939D4B53939D4B5493C1
:100508009D4B4F939D4B50939D4B55939D4B5693AD
:100518009D4B19939D4B1A939D4B57939D4B589305
:100528009D4B59939D4B1F939D4B20939D4B21931E
:100538009D4B22939D4B23939D4B26939D4B279335
:100548009D4B28939D4B29939D4B2A939D4B2E930E
:100558009D4B2F939D4B30939D4B31939D4B3293E5
:100568009D4B33939D4B41939D4B42939D4B43939E
:100578009D4B44939D4B0D939D4B1493A3691F4230
:10058800FCD1A3691F42FCD12268D3B20D2B22D023
:100598000A2B00D1E9E1082B00D1DCE17F2B00D147
:1005A800D9E1FF210A4041466820895C8143002047
:1005B80003900029E2D0681C5F2800D895E21498BF
:1005C800FFF76EFE00250395D8E78A48FFF768FE17
:1005D8002F4B06931BE70D3B5A425341DBB2039363
:1005E8000D26002220230D200599002A00D0A5E120
:1005F800029A964200D1A9E1A2691342FCD1266071
:100608000A7801310D3A564272410E78D2B2002E64
:10061800EBD1182258AB9B1842465E5558AB1B7E4F
:100628005EADD35C1B0707D5082241466B780135C0
:10063800CB5C1A42FAD18846280007F0C1FB28187B
:10064800A84212D9B44608222E0000214546013896
:1006580004E00170431E864204D018000378EB5C66
:100668001A42F6D1A846350066462B78002B00D1F1
:10067800A3E1082229004046C3E0C04600800340A9
:1006880030900340E88B0020148C0020688C0020F8
:10069800E88C0020C08C0020F88C0020E4AE0020FC
:1006A8004094002019A00020148D0020188D0020EF
:1006B800E9AE00204C8D0020BCAE0020E8AE002042
:1006C800788D0020C08D0020DC8D0020D08A00208D
:1006D80030930020F88D0020088E0020148E002012
:1006E800248E00202C8E0020348E00206C8E00205A
:1006F800D48A0020D88A0020908E0020A48E002062
:10070800AC8E0020E48E0020088F0020308F00205F
:10071800508F0020688F0020748F0020B08F002039
:10072800E48F0020E48A0020EC8A0020DC8A002084
:100738000090002014900020388B00203C8B002073
:1007480018900020108B0020248B0020908B002014
:10075800609000206C90002074900020408B002056
:10076800648B0020888B0020988B0020C890002084
:10077800D8900020E4900020A48B0020BC8B00209F
:100788003C91002050910020D48B0020E08B002069
:100798005891002064910020C0910020D49100203D
:1007A800F891002008920020109200204892002022
:1007B800609200206C9200207C920020849200209D
:1007C8008C9200209092002098920020AC920020F9
:1007D800C89200207899002028990020D092002003
:1007E800DC9200203493002070930020AC9300200A
:1007F800B0930020988C00204B780131002B00D159
:10080800DDE0C35C1A42F7D08A46012353449B4675
:1008180000230B704B7880469946C35C08211A4226
:100828000BD0AC465B4645465A780133A85C01427A
:10083800FAD1A8469B46914665462800079906F0D6
:100848008BF9002800D15BE12800099906F084F9AA
:10085800002800D190E028000B9906F07DF90028C7
:1008680000D180E12800119906F076F9002800D11E
:10087800AFE12800189906F06FF98246002800D1E8
:100888000EE228001E9906F067F9002800D17CE2E4
:100898002800539906F060F9002800D1EFE22800FB
:1008A800569906F059F98246002801D100F0EEFB6E
:1008B8002800219906F050F9031E01D100F049FCE7
:1008C8002800319906F048F9002800D06EE34B461D
:1008D8000500002B01D100F083FE339BEE009C46FF
:1008E80066445846316806F037F9002801D100F00F
:1008F8003DFE01350A2DF0D15846419906F02CF9F4
:10090800031E01D000F0FCFD20210D264298C84AA4
:100918000578002D00D131E6002B00D04EE3029B74
:100928009D4200D14EE393690B42FCD115600378D8
:1009380001300D3B5D426B41DBB2E9E7A26913422E
:1009480000D15CE6A2691342F8D158E6A2691342C5
:10095800FCD1206050E6002D00D133E60D98FFF75A
:100968009FFC0023013D039308E6039A002A00D167
:1009780031E60023039301E64B46002B00D10BE13F
:100988003F98722684460021300020220D256646B5
:10099800A74B002900D00FE10299884200D113E14A
:1009A80099690A42FCD11860317801360D394842FC
:1009B80041413078C9B20028EBD10025DEE58A46EE
:1009C800804607992800994606F0C6F8002808D0FE
:1009D8002800099906F0C0F8002800D1DCE0D346C9
:1009E80039E7089B1B78012B00D123E1002358AA83
:1009F80013745CA800F028FF002800D0ABE058ABC7
:100A08001B7C002B00D035E1139B1A78002A00D1FB
:100A180076E30C9D2C982988FFF770FC0A9B6D687B
:100A28009946002D02DA129B6D429946FA21280058
:100A3800890002F0E5F90E00FA212800890002F089
:100A4800DFF92D9B02004946109800933300FFF709
:100A580055FC049B0D2102255D5F002399468C46B9
:100A68002C26202249463D98714B002930D1B542A9
:100A780035D099690A42FCD11E60017801300D39E0
:100A88004E4271410678C9B2002EEED10C9B9D688A
:100A98000A9B9946002D02DA129B6D429946FA216B
:100AA8002800890002F0ACF90E00FA21280089001C
:100AB80002F0A6F93E9B02000093494633001098C5
:100AC800FFF71CFC049B002502229B5E029355E560
:100AD80099690A42D0D099690A42F9D1CCE7996953
:100AE8000A42FCD161461960C3E7182658A989193A
:100AF8004B552021A3691942FCD10500226038E733
:100B08004B46002B00D16CE70021722620220D25D0
:100B18002498474B002912D102998E4216D0996920
:100B28000A42FCD11E60017801300D394E427141F4
:100B38000678C9B2002E00D13FE70029ECD09969A8
:100B48000A42EFD099690A42F9D1EBE799690A425A
:100B5800FCD11D60E3E700F0AFFD1599020006988F
:100B6800FFF7CCFBAEE74B46002B00D0D5E0089B47
:100B78001B78002B00D132E15CA800F09DFE050037
:100B8800002D00D1B0E1280000F096FD399902004F
:100B98000698FFF7B3FB95E75CA800F055FE002820
:100BA80000D0B2E058AB1B7C1C99002B00D01B99DD
:100BB8004B98FFF7A3FB85E799690A4200D1F2E653
:100BC80099690A42F8D1EEE699690A42FCD11D609A
:100BD800E6E64B46002B00D017E1089B1D78002D58
:100BE80000D178E2049B002102229B5EAC469A4623
:100BF8002022D3463C980E4B0578002D00D129E1E0
:100C080000290CD05E4699690A42FCD11D60017822
:100C1800B3460D394D4269410130C9B2ECE75E4631
:100C2800AB4500D1A0E099690A42FCD1EEE7C04685
:100C38000080034025987326844600213000202236
:100C48000D256646B74B00291ED10299884222D04D
:100C580099690A42FCD11860317801360D39484249
:100C680041413078C9B20028EDD100F065FD002877
:100C780000D070E70C9800F07FFD002800D06AE7EC
:100C88000123139A1370C4E699690A42E3D099695B
:100C98000A42F9D1DFE799690A42FCD11D60D7E71A
:100CA8004B46002B00D129E15846169905F054FF10
:100CB800051E06D05846179905F04EFF002800D0AB
:100CC8008AE1089B1E78002E00D123E16B425D412A
:100CD800002358AAEDB22800137400F0A3FE824640
:100CE800002E00D182E25346002B00D1F9E14B4699
:100CF800389D002B00D0379D504600F0DDFC2900C0
:100D080002000698FFF7FAFADCE600F0D5FC4099F5
:100D180002000698FFF7F2FAD4E600217226202294
:100D28000D254C987F4B002912D102998E4216D07E
:100D380099690A42FCD11E60017801300D394E4292
:100D480071410678C9B2002E00D1BBE60029ECD06B
:100D580099690A42EFD099690A42F9D1EBE7996992
:100D68000A42FCD11D60E3E76E49029089462021C2
:100D78008A464946504689690842FAD1B3460D2148
:100D88004E46029831605E464DE758ABD8814B46D7
:100D9800002B00D18FE043464A469B5C1B0700D4DA
:100DA8003CE1202100228B46049B519802255D5F7F
:100DB8005C4B0678002E00D184E6002A00D0F8E0CB
:100DC800B54200D1A0E359469A690A42FBD11E6098
:100DD800027801300D3A56427241D2B2E9E700F08A
:100DE8008DFC002800D0D2E05CA800F065FD05006D
:100DF80000F06EFC002800D1C2E600F05DFC0F99FF
:100E080002000698FFF77AFABAE672260021202235
:100E18000D253B98434B002910D102998E4214D0DE
:100E280099690A42FCD11E60017801300D394E42A1
:100E380071410678C9B2002EEDD143E699690A429C
:100E4800F1D099690A42F9D1EDE799690A42FCD1D2
:100E58001D60E5E75CA8654600F06CFD0600002D06
:100E680000D182E0002E00D097E058AB1B8A34995D
:100E78000A9A002B01D03599369A489870E64B4665
:100E8800002B51D14A4658AB1A82089B1D78002D79
:100E980000D155E35CA800F03BFE0600002D00D110
:100EA80041E3002E00D1AEE14B46509D002B00D00F
:100EB8004F9D300021E7089B1D78002D62D058AA6D
:100EC80094460E236344180000F0CCFD0600002D64
:100ED80000D1F6E1002E00D1AAE14B46469D002B39
:100EE800E7D03000459D08E758AB58AA58A99B8A17
:100EF800528A098A3A98FFF701FAE3E5089B1E78B7
:100F0800002E64D0002558AB1D745CA800F04AFD83
:100F18008246E5E600F0F2FB061E00D1D6E6300078
:100F280035E0C0460080034043464A469B5C1B07A9
:100F380000D5D3E10A2258465CA906F00DFF5C9B58
:100F48001B78002B00D0C9E1B34B984200D9C5E10A
:100F580058AB1882089B1D78002D00D192E358AB3E
:100F6800188A00F00BFE060098E700F0B1FB002895
:100F780000D177E700F0A0FB0F9902000698FFF771
:100F8800BDF96FE700F0BAFB051E98D0280000F005
:100F980093FB0E9902000698E2E5300000F08CFB06
:100FA800479902000698FFF7A9F98BE529004498AC
:100FB800FFE559469A690A42FBD108E793690B4253
:100FC800FCD1B3E493690B42FCD11660ABE400F0AA
:100FD80095FB061E96D0A2E7534620210D25499879
:100FE8008E4A0678002E00D16CE5002B0DD1029BAD
:100FF8009E420ED093690B42FCD1166003780130F3
:101008000D3B5E427341DBB2EBE793690B42FCD1C7
:10101800F3E793690B42FCD11560EBE758465CA9EE
:1010280005F0C6FC5C9B05001B780E00002B00D069
:10103800B7E60022002302F099F9002800D0B0E6B4
:10104800002228003100764B02F0A6F9002800D0D3
:10105800A7E600222800734B310002F03CF9002279
:10106800714B02F01AF9714B002202F00DF902F0EF
:10107800E5F958ABD881089B1D78002D00D1A9E26D
:1010880058ABD88900F024FD060020E74B46002B1A
:1010980000D196E25846199905F05EFD002800D166
:1010A80087E258461A9905F057FD002800D0BDE29E
:1010B800089B1B78012B00D1B4E200F01FFB01262E
:1010C8000500002D00D141E2280000F0F5FA1F9933
:1010D8000200069844E500F011FB002800D181E5E4
:1010E80055E74B461D99002B02D158AB1D7C0A9938
:1010F800179A002D00D0169A4A98FFF7FFF8E1E4F6
:10110800049B0D2602215B5E202102932B98434B02
:101118000578002D01D1FFF731FA002A0DD1029A86
:10112800AA4211D09A691142FCD11D60027801309F
:101138000D3A55426A41D2B2EAE79A691142F4D0AF
:101148009A691142F9D1F0E79A690A42FCD11E6006
:10115800E8E74A46002A00D0B0E158AA94460E2390
:101168006344180000F070FB089B05001B78002BF7
:1011780000D18DE15CA800F015FC0600089B1A99C7
:101188001B78002B00D119992398FFF7B7F8002E88
:1011980000D0D4E058AB1B7C179A002B00D0169ACD
:1011A8000D26049B202002215B5EB1469C4600234D
:1011B8001A491678002E00D1C8E0002B0CD1B4458E
:1011C8000ED08B690342FCD10E60137801320D3BBF
:1011D8005E427341DBB2ECE78B690342FCD1F3E773
:1011E8008B690342FCD14B460B60EAE700F070FACA
:1011F800002800D177E500F05FFA0F990200069801
:10120800FFF77CF86FE54B460A99002B00D01D9933
:1012180058AB1A8A5598A3E4B80B00000080034025
:10122800000034400000F04000E065400000E03F6E
:1012380058ABD88931000023CA4A02F0D3FC4B4688
:10124800050C09044E980D43002B00D04D980D262F
:10125800049B002102229B5EB14620229C46C24B81
:101268000678002E1BD000290CD1B44511D09969FD
:101278000A42FCD11E60017801300D394E4271419D
:10128800C9B2EDE799690A42F4D099690A42F9D1DD
:10129800F0E799691142FCD149461960E7E7FA215C
:1012A8002800890001F0ACFD0E00FA212800890011
:1012B80001F0A6FD529B020000930A993300FFF744
:1012C800FEFB00F005FA002800D103E600F0F4F96F
:1012D8000F9902000698FFF711F8FBE52021049BFF
:1012E8008B4602269E5F002354989F4A0578002D5E
:1012F80001D1FFF7E7FB002B0DD1AE4210D05946C4
:1013080093690B42FBD11560037801300D3B5D42B8
:101318006B41DBB2EAE7594693690B42FBD1F2E72E
:10132800914B81469A4620239C46534698696346CA
:101338001842FAD10D23514648460B60DFE73000CA
:1013480000F0BAF901002698FEF7D8FF202082465F
:10135800133800228446049B279E0221595E824B43
:101368003078814600281DD0002A0FD1494512D077
:1013780050469A690242FBD14A461A6032780136D1
:101388000D3A100042424241D2B2E9E750469A690A
:101398000242FBD1F0E750469A690242FBD162460D
:1013A8001A60E5E7139B1B78002B27D12026B2464D
:1013B800133EB44628986C4A0678B146002E59D098
:1013C800002B0FD1494512D0564693693342FBD1C1
:1013D8004B461360037801300D3B1E007342734186
:1013E800DBB2E9E7564693693342FBD1F0E756464C
:1013F80093693342FBD163461360E5E70C9E299855
:101408003188FEF77BFF0A9B76689A46002E02DA3F
:10141800129B76429A46FA213000890001F0F0FCCE
:101428008946FA213000890001F0EAFC2A9B020073
:101438005146009310984B46FEF760FF0C9B9E6840
:101448000A9B9A46002E02DA129B76429A46FA21A5
:101458003000890001F0D4FC8946FA213000890067
:1014680001F0CEFC2E9B0200009351464B4610988B
:10147800FEF744FF002D00D0FBE058AB9B7B1C9986
:10148800002B00D01B992F98FEF738FFFFF71AFBA7
:1014980000F034F9002800D079E55CA800F082FA61
:1014A800060000F015F9002800D167E600F004F9FD
:1014B8000F9902000698FEF721FF5FE620210D250F
:1014C8002298294A0678002E01D1FFF7FBFA002B53
:1014D8000DD1029B9E420ED093690B42FCD116603F
:1014E800037801300D3B5E427341DBB2EAE7936952
:1014F8000B42FCD1F3E793690B42FCD11560EBE793
:1015080059464398FFF755FB174A814692462022D1
:1015180094465246906962461042FAD10D225146CD
:1015280048460A604FE400F0D3F8002800D1B8E438
:1015380000F0C2F80F9902000698FEF7DFFEB0E44B
:1015480000F0DCF8051E00D020E5A3E4089B59460E
:1015580020981E70FEF7D2FE049B02229B5E029327
:10156800FFF70CF898AB020000800340030020212D
:1015780070680D26464A0578002D01D1FEF7FEFF5A
:10158800002B0DD1029B9D420ED093690B42FCD1DA
:101598001560037801300D3B5D426B41DBB2EAE731
:1015A80093690B42FCD1F3E793690B42FCD11660B7
:1015B800EBE7089B1B78002B34D000F089F8050076
:1015C8007FE5089B1A991B78002B00D11999579829
:1015D800FFF7EFFA00F092F8051E00D150E5D5E4C8
:1015E8000D2632992A4A20300D78002D01D1FEF7B8
:1015F800C5FF002B0DD1029B9D420ED0936903427B
:10160800FCD115600B7801310D3B5D426B41DBB2BB
:10161800EAE793690342FCD1F3E793690342FCD1FB
:101628001660EBE759465998FFF7C3FA534620204E
:101638000D265899164A0D78002D01D1FEF79EFF08
:10164800002B0DD1029B9D420ED093690342FCD121
:1016580015600B7801310D3B5D426B41DBB2EAE767
:1016680093690342FCD1F3E793690342FCD1166006
:10167800EBE7280000F020F801003098FEF73EFE66
:10168800FFF720FA00F03AF8051E00D167E47DE480
:101698000080034010B50649064804F0C1F903214B
:1016A800042000F0D5FA0321052000F0D1FA10BD7E
:1016B800A086010098A20020042803D8024B8000CD
:1016C800C05870470148FCE79C9B00202C970020DD
:1016D80000B5084B85B003AA13800023622100934C
:1016E8000548023304F0C6F90238431E9841C0B2D7
:1016F80005B000BD21B1FFFF98A2002010B50C4B2A
:1017080084B003AA1380002362210093094802339E
:1017180004F0B0F9841E631E9C41E4B2022802D092
:10172800200004B010BDF330FF3000F07FFEF7E773
:101738003F86FFFF98A2002010B50C4B84B003AA87
:1017480013800023622100930948023304F092F9C0
:10175800841E631E9C41E4B2022802D0200004B01B
:1017680010BD044800F062FEF8E7C046219DFFFF67
:1017780098A2002088130000F0B5C646002600B5E0
:101788002B4B88B02B4D05AC238007000223220089
:1017980062212800009604F06DF90123022804D084
:1017A800180008B080BCB846F0BD013800F03EFE15
:1017B8000923220062212800009604F065F902231B
:1017C8000928EDD11D2303AD6B442E00984608E08F
:1017D8002278637812021343033433800236444577
:1017E80008D00221200000F0E9F9A3788342EFD065
:1017F8000323D5E72B88104A3B8068880023002103
:1018080002F0F0F900230D4A01F020FB0C4B0D4AC1
:101818009C46604478600023A888002102F0E2F921
:101828000023064A01F02AFB0023B860B8E7C04647
:10183800EC05000098A2002098AB0200FFFF000012
:101848003850FFFFA0860100F0B5002787B0184B7D
:10185800184E03AC238005000223220062213000C9
:10186800009704F007F90123022802D0180007B0F6
:10187800F0BD013800F0DAFD0323220062213000B8
:10188800009704F001F902230328EFD10221200078
:1018980000F094F9A378834207D123885BBA5B05EB
:1018A8005A1E93412B700023E0E70323DEE7C0466E
:1018B800E4B8FFFF98A20020F0B5002787B01B4BC3
:1018C8001B4E03AC23800500022322006221300056
:1018D800009704F0CFF80123022802D0180007B0BF
:1018E800F0BD013800F0A2FD09232200622130007A
:1018F800009704F0C9F8092813D1AE1D08E0227832
:101908006378120213432B8002350334B5420AD0A0
:101918000221200000F052F9A3788342EFD003237C
:10192800DCE70223DAE70023D8E7C0463682FFFF68
:1019380098A20020F0B5002787B0174B174E03ACCC
:10194800238005000223220062213000009704F062
:1019580091F80123022802D0180007B0F0BD104802
:1019680000F064FD0323220062213000009704F098
:101978008BF803280BD10221200000F01FF9A3786F
:10198800834206D123885BBA2B800023E4E7022335
:10199800E2E70323E0E7C0463639000098A20020BA
:1019A80010270000F0B5C646002500B51B4B86B0D1
:1019B8001B4F03AC2380804602232200622138009B
:1019C800009504F057F80126022804D0300006B02C
:1019D80080BCB846F0BD013800F028FD0323220082
:1019E80062213800009504F04FF8032812D1022133
:1019F800200000F0E3F8A37883420DD123885BBA76
:101A08009BB2012B04D84246334013700026DDE711
:101A18000426DBE70136D9E70326D7E723130000BE
:101A280098A2002030B585B002ACE0700A200025ED
:101A38000A4B022168442380A570257100F0BEF886
:101A480005232071220062210095054804F012F850
:101A58000538431E9841C0B205B030BD24160000B9
:101A680098A20020F0B5002787B0174B174E03AC9B
:101A7800238005000223220062213000009703F032
:101A8800F9FF0123022802D0180007B0F0BD013881
:101A980000F0CCFC0323220062213000009703F001
:101AA800F3FF03280BD10221200000F087F8A37868
:101AB800834206D123885BBA2B800023E4E7022304
:101AC800E2E70323E0E7C0462318000098A20020BD
:101AD80030B585B002AC40BA60800A2000250A4BB8
:101AE800022168442380257100F068F805232071DD
:101AF800220062210095054803F0BCFF0538431E0B
:101B08009841C0B205B030BD241D000098A2002045
:101B1800F0B5002787B0174B174E03AC238005009C
:101B28000223220062213000009703F0A3FF012363
:101B3800022802D0180007B0F0BD013800F076FC8A
:101B48000323220062213000009703F09DFF032841
:101B58000BD10221200000F031F8A378834206D18E
:101B680023885BBA2B800023E4E70223E2E7032300
:101B7800E0E7C0462322000098A2002030B585B0D7
:101B880002AC40BA60800A2000250A4B0221684452
:101B98002380257100F012F80523207122006221AC
:101BA8000095054803F066FF0538431E9841C0B20A
:101BB80005B030BD2427000098A2002030B50029C8
:101BC80041D0451804003121FF20237858404300B4
:101BD80040B2DBB2002801DA4B40DBB25A005BB2FC
:101BE800D2B2002B01DA4A40D2B2530052B2DBB271
:101BF800002A01DA4B40DBB25A005BB2D2B2002BAA
:101C080001DA4A40D2B2530052B2DBB2002A01DAFA
:101C18004B40DBB25A005BB2D2B2002B01DA4A4029
:101C2800D2B2530052B2DBB2002A01DA4B40DBB227
:101C380058005BB2C0B2002B01DA4840C0B2013490
:101C4800AC42C2D130BDFF20FCE7C046012070473E
:101C5800094A83009A1810B514684022544080320B
:101C68002240064CC000A44663441A60044B9C46BC
:101C78006044416010BDC04604C0014004D001402A
:101C8800004001400FB400B5084883B003F096FD4A
:101C9800049B002B07D005A91800019103F004FC50
:101CA800034803F08BFD012003F016FCC0970020C9
:101CB8003093002070B5EFF3108C72B60D4D2B6881
:101CC800002BFCD0BFF35F8F0724CB08C618C05C7D
:101CD80001230C40A3401C000440034207D11843D1
:101CE8003070BFF35F8F2C608CF3108870BD1000CC
:101CF800FFF7C8FF2C0100D0044A1078431CDBB260
:101D0800172B00D9102313707047C04648A2002033
:101D18000021044B044ABFF35F8F02C39342FAD1F8
:101D28007047C046000100D0800100D0054B064A2C
:101D38001360064A136053609360D3601361536164
:101D4800936170478080808000E400E004E400E054
:101D58001F2318401E3B8340002905D0C021044A98
:101D68004900535013607047802201498B50FAE7AD
:101D780000E100E010B5EFF3108C72B60F4A13685B
:101D8800002BFCD0BFF35F8F0D4B10309B68800099
:101D98001B580C4A934201D099420CD1084B9B68BE
:101DA8001950BFF35F8FBFF35F8F0022034B1A6098
:101DB8008CF3108810BD00F0D1FEC046240100D07D
:101DC80000ED00E0C1010010024B9C46614489000F
:101DD800016070474000003470B5114C114DAC42A1
:101DE8000FD2FF262368002B0CD0FFF785FF0100D8
:101DF8002000FFF7E9FFA680BFF35F8F0834AC42ED
:101E0800F0D370BDFFF778FF01002000FFF7DCFF7B
:101E18002671BFF35F8F0834AC42E3D3F1E7C046C5
:101E280048A9002050A900200A4B1968EFF3108038
:101E380072B60A68002AFCD0BFF35F8F1B68BFF335
:101E48005F8F00221A6080F3108840BF00200021B5
:101E58007047C046E0AE0020F0B5DE4657464E4615
:101E68004546E0B583B0EFF3058203231340B54A36
:101E7800990052580091904601229A409346B24BDD
:101E88001A60B24B01935B46B1484363434608224C
:101E98009B5E9946002B3ADA43469B881BB2002B7F
:101EA80000DB9DE043469B79002B00D0E1E04346F0
:101EB80008241C5F002C20DB43465A6963001B1969
:101EC800DB00D3189D68DC686B1C00D103E1A048D7
:101ED800009984466144826A0B69AE1A9B1A9E4235
:101EE80013D35A46036A1A420FD0994800F050FBA0
:101EF8008C4202DCC7D18542C5D940BF03B0F0BCD3
:101F0800BB46B246A946A046F0BD0D61EDE7424684
:101F180052695B0092464B44DB009A4453469E68E4
:101F2800DF6800F035FB8F42B6DC00D1F8E0002F07
:101F380000DAD9E05246534654691B69019A934224
:101F480000D1CCE0414652460820085E5288000481
:101F580021001043984704000D0023002B4300D1B3
:101F6800C2E0002D00DBDFE030003900001BA94192
:101F780053469860D96000229A5E002A00DA8BE7FF
:101F880043465D6953009C18E4002C19A768E4686F
:101F98008C4200DD80E702D1874200D97CE74646C3
:101FA800328108360DE08C4200D1C6E01E000023C5
:101FB800F25E002A0ADB53009C18E4002C19A7687B
:101FC800E4689B18DB00EB188C42ECDD53461A8062
:101FD8004B46338043469B881BB2002B00DA61E7EF
:101FE80043461A69EFF3108172B61368002BFCD0D0
:101FF800BFF35F8F43469E88012342465B4293802E
:1020080036B21369BFF35F8F00221A6081F310881C
:10201800002E00DA46E743465D69083342469C468F
:102028007700BF19FF00EF19BB6860469846082380
:10203800D15E9246FC68002907DA0EE0A24246D03B
:1020480018000023C15E002906DB4B005B18DB008B
:10205800EB18DA68A242F1DD524606800023FE5EE4
:102068003980002EDCDA904643469B79002B00D15C
:102078001DE7002342469371434646460821595EB0
:1020880008364B1C00D138E747468946556902E0B7
:1020980006004B1C18D04B005B18DB00E8180A0040
:1020A8008C46E95E43881BB2002BF1DA01235B42C0
:1020B800DC178360C4604A4503D031803B890380C4
:1020C8003A81E1464B1CE6D1B8464C46F2E69A689E
:1020D8004245B5D9C0E7631C00D0F8E605E7200003
:1020E80023699847002825D1534642461B88138107
:1020F8001269EFF3108372B611680029FCD0BFF3A0
:102108005F8F4246514652880A804246494651806E
:102118001269BFF35F8F0021116083F31088BBE65B
:10212800864200D803E7B7E6094800F031FA0019FB
:1021380069411DE7656824680FE7874200D835E7DD
:1021480044E7C046CCAE00203C700540791C002016
:102158000040054070B52E4C2569002D04D00A2199
:102168002C48FFF731FE70BD2B4E0321300000F0E4
:1021780005FAE660FFF7C0FD284B03229C46D023F2
:1021880022701B061B6801216370254B6044A36005
:102198000F23800020610220638063694942A18087
:1021A80019800231198647311D83585218315A5205
:1021B80075325C399952183201319952183201310D
:1021C8009952183201319952083518329D5202310C
:1021D80018329952183201319952183201319952F4
:1021E800183201319952183201319952183201319D
:1021F80099520C4B0C49DC6001303562FFF7BAFD8F
:1022080001210320FFF7A4FD084B1D60A7E7C04686
:1022180058A20020E0AE00200040054040000034F5
:10222800FFFF1000CCAE0020791C0020386005406C
:1022380070B501000469EFF3108C72B620680028AD
:10224800FCD0BFF35F8F02200D5E4C696800401917
:10225800C0002418002D37DB208848800869BFF3A8
:102268005F8F002606608CF31088E360638804980B
:10227800013320615B0405985B0CA26060611A1C45
:10228800002B1FD093B22804628018430A69EFF329
:10229800108C72B61368002BFCD0BFF35F8F8B884D
:1022A80023808D800B69BFF35F8F00221A608CF347
:1022B80010880B7801329A40CB6808498C466344F1
:1022C8001A6070BD0122DDE70B69BFF35F8F002242
:1022D8001A608CF3108801204042F2E73C2000008D
:1022E80010B543890A1493421ADD53009B184269BA
:1022F800DB00D3180469EFF3108C72B62268002A49
:10230800FCD0BFF35F8F5A88090494B2090C8A4243
:1023180008D00369BFF35F8F00221A608CF310881E
:10232800002010BD8022120214435C800123026940
:102338008371BFF35F8F002111608CF3108804490B
:1023480002788C469340C268012062441360E8E733
:102358003C200000F0B504000D0006267642F71771
:10236800C64636196F4100B582B08F4214D811D0D5
:1023780000F016F932003B00121A8B41002B17DCD3
:10238800002B47D02000290000F048F902B080BC9B
:10239800B846F0BD8642EBD90022002316001F0084
:1023A80000F0FEF832003B00121A8B41002BE7DDEB
:1023B80000F0F6F832003B00121A8B41002B0ADBC2
:1023C80000230193154B3200009315483B00FFF79B
:1023D8002FFF0028D6DB00239C46B046114A124E38
:1023E800736A9F4204D8B16A8845CBD99F42C9D144
:1023F8001168EFF3108072B60B68002BFCD0BFF3A6
:102408005F8F1368BFF35F8F6146196080F3108890
:1024180020BFE5E7002AB5D0CAE7C046491C00201E
:1024280058A20020E0AE00200040054070B506002C
:1024380000F0B6F8FA2204000D0000233000002155
:10244800920001F0CFFB8023001969411B069942D5
:1024580002D3012002494042FFF77CFF70BDC0460D
:10246800FFFFFF7FF0B5D6464F464646C0B504008D
:102478000D0082B0EFF305830F00002B31D13B4BE9
:1024880098461B68834227D0394B9946DB689A46A1
:102498004B4650461E7800F07BF80B005146020070
:1024A8000436B60071582000891A8C462900002687
:1024B800801A99418E4224DC21D020BF2D4A536ACC
:1024C800BB422AD3926A0120A24213D302B0E0BCD5
:1024D800BA46B146A846F0BD43465B688B42D3D1A5
:1024E800EBE7244900204B6AAB42EFD38A6A0130FC
:1024F800A242EBD25B1B5A1E9341D8B2E6E7844551
:10250800DBD900F04DF822002B00121A8B41002B6A
:1025180005DA184A536ABB42D4D20020D6E7002312
:102528000193154B2200009348462B00FFF780FECD
:10253800011EEEDD43461C605D600E4B5A6ABA42CE
:1025480011D39B6AA3420CD34846FFF7C9FE094A38
:102558000020536ABB42B9D3926A0130A242B5D275
:10256800C8E7BA42F0D120BFEEE7C04650A200202B
:1025780058A2002000400540491C002010B5024A1E
:102588000248FFF797FB10BDD097002084AE0020CB
:102598000300416A0A00986A596A8A42FAD1704768
:1025A800034B596A0A00986A596A9142FAD17047EE
:1025B8000040054070B504000D00174A536A190021
:1025C800966A536A8B42FAD13000190024184D419B
:1025D800AB4216D813D0104A2B00526A954203D941
:1025E8000D494A6A9A42FCD39A4207D10A4A02E044
:1025F800516A994202D1916AA142F9D370BDA642AB
:10260800E9D9054B5B6A1C005A1CEFD00123012451
:102618006442E5175B42E3E700400540064A536A17
:102628009942FCD807D1044B02E05A6A914202D180
:102638009A6A8242F9D3704700400540F8B5040011
:1026480006200D0000F0E2F9002844D0374B384945
:10265800E3185A1E93418022120494465B429B0D54
:10266800344A9B0563441360334A136018000A68B0
:102678009043FBD12D4B314AE31859424B418021FD
:102688005B0049000620995200F0C0F92900C000FB
:1026980000F0B6FB0130C3091ED140270122626257
:1026A800A362266BF30722D4E36A254B0620E518BC
:1026B80000232B60266300F0A9F93900800000F0A0
:1026C8009FFB7023E26A5A400E3313402B601D4B68
:1026D80023630323A364F8BD1B4A93421ED9002336
:1026E8001A4A1B4F6262A362266BF307DCD5194BAB
:1026F800144AE3181A60656AA36A0620AD01ED184A
:1027080000F084F9144900F07BFBAD0201002800B9
:1027180000F076FB0021FFF74DFFC5E74006800E6D
:102728009F011A003F180300B9E7C0460080FCBFAC
:1027380008C0004000E0004000F00040E4AE002087
:102748002C10000001030000FEFF0000FFFF000046
:10275800C0FF3F00303000004E0E00000539013A3E
:10276800F8B5D2004C0105001443002B06D0013BFC
:102778005A4253419B00234302241C432E6BF30708
:1027880008D46E23EA6A624013400E4AAA181360FE
:102798002E63F8BD0C4B0D4AEB181A606F6AAB6AD2
:1027A8000620BF01FF1800F031F9094900F028FBA5
:1027B800BF020100380000F023FB0021FFF7FAFEFA
:1027C800DFE7C0462C100000303000000103000095
:1027D8004E0E0000F8B5066B04000D01F30708D48F
:1027E800E36A5D4010231D400D4BE3181D6026630E
:1027F800F8BD0C4B0C4AC3181A60476A836ABF01BC
:102808000620FF1800F002F9084900F0F9FABF02A3
:102818000100380000F0F4FA0021FFF7CBFEDFE7F3
:102828002C10000030300000010300004E0E0000A4
:10283800F8B5DE464E4657464546E0B58B46050098
:102848000A991800160000F0DBFA0A9B6C001F02B8
:10285800324B64199C46A4006444636881469F42D5
:1028680000D967602B1FDBB29846012B30D9C023F3
:1028780080229B01E31812011A60294BAD005959B7
:102888009A4600291BD17301E026226853401E4056
:10289800802342465B01E3181E60012A30D9802359
:1028A80080229B01E31812011A6053464A4667606A
:1028B8005A51F0BCBB46B246A946A046F8BD586975
:1028C80000F09EFA013043001B18033BFDD2DAE703
:1028D8005B46012BCBD1C02303229B01E3181A606E
:1028E800023AA3681A42FCD07301E0262268AD00C0
:1028F80053401E4080230A4A5B019246E3181E603B
:102908005A462168514003220A401A6001225B4658
:102918009A40A3681A42FCD0C1E7C0460080004034
:1029280088AE0020F0B546464F46D646C0B51F00D3
:10293800344B44009C462418A400644463688846C9
:102948001600FF2B02D880235B006360031FDBB2F5
:102958009A46012B30D9C02380229B01E31812012B
:102968001A60294B85005959994600291BD17301D2
:10297800E026226853401E40802352465B01E3183C
:102988001E60012A30D9802380229B01E31812019E
:102998001A6080235B0063604B465F51E0BCBA4617
:1029A800B146A846F0BD586900F02AFA0130430044
:1029B8001B18033BFDD2DAE74346012BCBD1C023DA
:1029C80003229B01E3181A60023AA3681A42FCD05A
:1029D8007301E0262268850053401E4080230A4A7E
:1029E8005B019146E3181E6042462168514003226C
:1029F8000A401A60012342469340A2681342FCD061
:102A0800C1E7C0460080004088AE0020014B80002E
:102A1800C058704788AE0020F8B5040021481E0051
:102A280017000D0000F0ECF90100380000F0E8F99B
:102A3800069B36041B031E432368002B20DB1A4B1E
:102A48001A49E3185A1E93418022920194465B4228
:102A58001B0B174A1B0363441360164A13601F00BD
:102A68000A689743FBD1144B2560E2182123A06024
:102A780013602368002BFCDA0823E6601360F8BDB6
:102A88003F2322681340AB42D9D1A3681B051B0D15
:102A98008342D4D1EE22E368D2021340B342CED1AE
:102AA800EDE7C046001BB7000040FDBF08C000406E
:102AB80000E0004000F00040043000008023024A9B
:102AC8009B000B43D362704700800540142310B568
:102AD8000100188804331B88984710BD162310B5C9
:102AE8000100188802331B88984710BDF8B547467F
:102AF800CE4680B50F1E19D014239946043304001E
:102B08000025012698464B461888434621681B88AD
:102B1800984701C4431E9841013540420640AF42E0
:102B2800F1D13000C0BCB946B046F8BD0126F8E77F
:102B3800AA23064A1B0113608D235B00D360044956
:102B4800044B19605368002BFCDA704700400240C0
:102B580000B0FA00006002407047C04610B5014856
:102B6800FFF790F8F497002070B5074D074EB5426F
:102B780009D20024013E761BB60808CD98472300E9
:102B88000134B342F9D170BD50A900208CA90020AE
:102B9800054B064A06491A60064A074B1A60100098
:102BA8000B689843FBD1704700E00040BFCDFBFEA7
:102BB80008C00040FE7F3C0000F00040044BDB6C86
:102BC800002B03D18022034BD2021A607047C04603
:102BD800000011504C201150044A054B1A60054A58
:102BE8001368DB018033FBD17047C046FFFFFF014C
:102BF80000F0004008C000404022034B9A675A6723
:102C08001A67DA667047C04600F0014010B5FFF752
:102C18007FF810BDF8B52749274C284D641AA40839
:102C28002200302C00D930222800920001F086F8CA
:102C38002F2C3BD830202F21A700EB195B07204A07
:102C4800001BDB0F091B052916D92600002B01D014
:102C5800EA51661CC01AE3189B004108EB18C9002A
:102C6800C9181A605A6008338B42FAD1012303420B
:102C78001CD098438419A700EA51631C2F2C15D047
:102C88009B00EA50A31C2E2C10D09B00EA50E31C9A
:102C98002D2C0BD09B00EA50231D2C2C06D09B001A
:102CA800EA50631D2B2C01D09B00EA50054B9D6018
:102CB800F8BDC04600010010C0010010000000204F
:102CC800C101001000ED00E0002310B5294C82B0CE
:102CD800A367FFF72DFF0122274B1A60636C012BB6
:102CE800FCD10322254B1A60224A936B012BFCD19D
:102CF800013300930121224A22480433FFF78CFE56
:102D0800052301210093204A2048FFF785FE002271
:102D1800022104201E4BFFF705FE00220121052099
:102D28001C4BFFF7FFFD0022002107201A4BFFF77D
:102D3800F9FD002200210820174BFFF7F3FD80233F
:102D4800DB000093002200210920134BFFF770FDE0
:102D58000022104B00210620FFF7E4FD0420FFF7B6
:102D680055FE0E4900F04CF801000020FFF7A6FEC2
:102D780002B010BD008000403CB0004030B00040C0
:102D8800002F685900800240008C864700C002402E
:102D9800001BB70040597307006CDC0240420F006B
:102DA80001480421014B184770A200200D2900207A
:102DB800124A936F9B0815D29066D166002905D0F8
:102DC800FFE7FFE7FFE7516F106F704704B58021F9
:102DD8000906C2175140002800D0C84302F05EFE21
:102DE800002104BDF0B5146E556E576F166FFFF7CE
:102DF800E3FF1466556657671667F0BD000000D0FC
:102E0800114A936F9B0813D210665166002905D0AA
:102E1800FFE7FFE7FFE7516F106F704704B5002821
:102E280001D00020C04302F039FE002104BDC04695
:102E3800F0B5146E556E576F166FFFF7E5FF146601
:102E4800556657671667F0BD000000D094464A4A99
:102E5800926F9208624601D228E0C046F0B5464E0D
:102E6800346E756E776F366F00F020F89446424ADC
:102E780014665566576716676246F0BD94463E4A23
:102E8800926F9208624601D254E0C046F0B53A4EBD
:102E9800346E756E776F366F00F04CF89446364A8C
:102EA80014665566576716676246F0BD002B24DB2B
:102EB80011D000293EDA00B5C943404200D10131A2
:102EC80000F038F8C943404200D10131DB43524297
:102ED80000D1013300BD002AEBD1002801D100291F
:102EE80005D00020C90FC90701D1C043410800B56A
:102EF80002F0D4FD0022002300BD00B500290ADB42
:102F0800DB43524200D1013300F014F8C943404278
:102F180000D1013100BDC943404200D10131DB433A
:102F2800524200D1013300F005F8DB43524200D190
:102F3800013300BD002923D1002B18D1002A0CD061
:102F4800BC460D4F38667A6600210023FFE7FFE78D
:102F5800FFE77A6F386F67467047002801D0074847
:102F6800010000B502F09AFD0022002300BD020016
:102F78000B00002000217047000000D0FFFFFFFF7A
:102F8800002B00D0BFE0130C28D1002AE7D080B472
:102F9800114F39667A66FFE7FFE730B4040C7B6FA0
:102FA800396F1B0423433B667A66FFE7FFE7FFE7B9
:102FB800C04684B27B6F3D6F1B0423433B667A6631
:102FC800FFE7FFE7C04600232C042D0C7A6F386F0B
:102FD80000196941B0BC7047000000D0F0B59446B4
:102FE8000025140E01D112020835140F01D1120167
:102FF8000435940F01D192000235D40F01D152004B
:103008000135D40B0134254F7C66254C3C660E0CEB
:1030180093B2FFE7FFE7FFE73C6F6643360C7703A1
:10302800BE467343DF0B5B04C01AB941130C7343EC
:10303800DB18C91ACE086643360CB64493B27343FC
:103048001F0F1B01C01AB941130C73431F0B1B053B
:10305800C01AB941860D8F023E436643360C092DCE
:1030680024DB520A7243801A7703460A6643360CF9
:1030780016235B1BDE40DF40BF1964466643821B94
:103088007046043506330100D940A840C01900D362
:103098000131A24206D20023F0BD0000000000D09A
:1030A800FFFFFFFF121B0130F3D3F1E709277F1B56
:1030B800FE406446A2B27243801A00D20139220C43
:1030C8007243130C1204821A99410B00704604359E
:1030D80013370100F940A840801900D30131002BB3
:1030E80002D1A2420AD2F0BD013000D30131121B35
:1030F800FAD2013BF8D1A24200D2F0BD013000D390
:103108000131121BF7E7F0B51C0C00D080E00CB4BD
:1031180000251C0A04D11B02160E3343120208357F
:103128001C0B04D11B01160F3343120104359C0BF1
:1031380004D19B00960F334392000235DC0B02D179
:1031480092185B4101351C00971864410134464FC1
:103158007C66464C3C660E0CFFE7FFE7FFE7C0467F
:103168003C6F6643360C7703BE4697B27743C01B65
:1031780000D20139C01B00D201399FB27743C91B65
:10318800C91B170C77437E04FF0B801BB941CE087F
:103198006643360C0C2D33DBB644120B1F053A433D
:1031A8001B0B97B27743C01B00D201399FB27743FC
:1031B800C91B170C77433E043F0C801BB941860D91
:1031C8008F023E43664329277F1BFE400C3D77460E
:1031D800AF40BF1930BCA2B2ABB272437343801A7E
:1031E8009941220C7243130C1204801A994102006F
:1031F8000B000137001BA941F9D2781E0021F0BD50
:103208000C277F1BFE4077467F0BAF40FF19E0E796
:1032180000245D1C07D0144F7D663966FFE7FFE781
:10322800FFE7FFE73C6F95B29EB265436643401BDC
:10323800B141150C1E0C6543664336042F0C3E4302
:103248002D04401BB141994204D202000B0020001A
:103258000021F0BD01D19042F7D3801A9941013481
:103268009942F2D3F6E70000000000D0FFFFFFFF0D
:1032780048404140484018B41B4B5B68FC460193EA
:1032880008BD04DFD333002018B4174B1B68FC4675
:10329800019308BD00DFDD3300209446134A926F86
:1032A800920809D2624618B40F4BDB68FC460193BA
:1032B80008BD0CDF953600200C4AF0B5146E556E2B
:1032C800576F166F6246FFF7EEFF084A1466556699
:1032D80057671667F0BD18B4034B9B68FC4601930B
:1032E80008BD08DF3935002010AB0020000000D0F1
:1032F800FFB550404240504059404B40594000E0D3
:10330800FFB5154F4C00640D03D0BC4204D10C032B
:1033180014D80020090D09055C00640D03D0BC42D7
:1033280004D11C030AD800221B0D1B0501264B40A3
:1033380009D44B4003D58B4200D18242FFBD99424C
:10334800FCD19042FFBD0B43DB1803431343F5D078
:10335800C9434918FFBD0000FF07000000B5FFF78B
:10336800CFFF01D0002000BD012000BD00B5FFF750
:10337800C7FF804100BDC04600B5FFF7C1FF01D9B6
:10338800002000BD012000BD00B5FFF7B1FF01D945
:10339800002000BD012000BD00B5FFF7A9FF804156
:1033A80000BD012040054A00121804D85A0012181E
:1033B80001D8002070470120704700000021002834
:1033C80005D17047C1174840401AFAD0C90713B54C
:1033D800064B1B6898470CBC441CA2401005120BF6
:1033E8000349091B09051943114310BDDCAE002030
:1033F8001F04000010B54C00620D8023D218DB00BA
:10340800D21A5B057E2A10DD9E3A13DACC1709031F
:10341800490819435242D140640001341532202A28
:1034280005DAD0400843604310BD002010BD0846AF
:10343800604310BDC80FC018013810BD18B4044B44
:103448005B6AFC46019308BD24DF45380020000074
:1034580010AB002018B4044BDB6DFC46019308BD8B
:103468005CDF51390020000010AB0020C94211D3A5
:1034780000B549004908002200F018F8002904D4D2
:10348800002240428A41114600BD802109060020E1
:1034980000BD000018B4044BDB6EFC46019308BD68
:1034A8006CDF53380020000010AB002018B4044B28
:1034B8009B6FFC46019308BD78DF6F380020000041
:1034C80010AB002018B4044BDB6FFC46019308BD19
:1034D8007CDFDD380020000010AB0020132370B51E
:1034E8001D78012D19D014DD1F48FFF7F7FA0600E3
:1034F8001E48FFF7F3FA1E4C80223100200000F02E
:103508001DFC022D2DD01B48FFF7E0FA1A4B18605E
:1035180070BD1A4B164CA364F5E7184B144C236086
:103528006360A360E36023616361A361E361236275
:103538006362A362E36223636363A363E363236455
:103548006364A364E36423656365A365E365236635
:103558006366A366E36623676367A367E367A36499
:10356800D1E7064BA364CEE753440000534600005E
:1035780010AB00204C330000DCAE0020A13300204B
:1035880007B5604601880A0A0230DF2AFAD1C9B2B3
:10359800820804D3028840880004104300E00068D1
:1035A800014A5050039007BD10AB00200FB403BC74
:1035B8000CBCF0B50124E407634000E0F0B50C0D45
:1035C800CF0F661E3605891B640503D3C9434042E5
:1035D80000D30131640D03D0661CF60A07D0E41B42
:1035E80000207F00791C89078912803C24031D0D67
:1035F800DF0F6E1E36059B1B6D0503D3DB4352425E
:1036080000D301336D0D03D06E1CF60A07D0ED1BF5
:1036180000227F007B1C9B079B12803D2D032F1BE4
:10362800661B58D4A446202E46DA20371400BC4026
:103638001D00BD40F24033412A4380185941CB0F49
:1036480005D0C943C04300226442504151416246FB
:103658004D0D28D10D0D07D100281FD02419404148
:103668004941013A0D0DF9D0640006D3013000D369
:103678000131002C01D140084000013A0BD4941CC0
:10368800E40A04D112051144DB071944F0BDD90737
:10369800204B194300E0D9070020F0BD0029DDD1F7
:1036A800002CDBD1F0BD0132C6074008CD07284306
:1036B8004908002EE1D0D9E73C2E29DA203E4037D0
:1036C8001400BC4000D00124F24014431A00BB404F
:1036D8001C43D317ACE7AC46202F08DA2036040089
:1036E800B4400D00B540F84039412843A5E73C2FC8
:1036F8000CDA203F40360400B44000D00124F840E2
:1037080004430800B1400C43C117EAE71000190050
:10371800002494E70000F07FF0B50C0D661E360516
:10372800891BE60A6405640D02D0651CED0A04D005
:10373800002001210905803C2403A4461C0D671EB6
:103748003F05DB1BE70A6405640D02D0651CED0A22
:1037580004D0002201231B05803C240377406444E5
:1037680097B484B296B27443070C7E43150C6F432A
:1037780080B26843361802D3012000043F18300491
:10378800350C00197D41844688B29AB250430C0C1E
:1037980062431F0C7C438EB27E43921902D30126EA
:1037A8003604A4191604170C3618674101BC81B2F7
:1037B8009AB25143040C62431B0C5C4380B25843D9
:1037C800121802D30120000424181004130C401806
:1037D80063412D185E410020474106BC88B293B270
:1037E80058430C0C6343120C544389B251435B1881
:1037F80002D301210904641819041A0C091862413A
:103808006D1856410020474118BCF902720D11434A
:10381800F0026A0D1043ED020A0D03D16D19404103
:103828004941013B124E9B1B7600B3420ED26D00FC
:1038380007D30130002671416646354301D140085F
:1038480040001B05C918E4072144F0BD0BDA013319
:1038580006D1013004D101314F0D01D04908F2E7FA
:10386800E1070020F0BD013631050020EBE700003C
:10387800FF030000F0B51C0D671E3F05DB1BE70AC0
:103888006405640D02D0661CF60A04D000220123E8
:103898001B05803C2403D0252D060026F6432E6602
:1038A8001E096E66CE0FF619B44649004F0D02D0B8
:1038B8007E1CF60A03D000200021403F3F033E1B38
:1038C800B600B444013F7F05C91B49082E6F013675
:1038D80076089C02950D25437543ED137543AD138A
:1038E80001356D10F603761B0CB4CC02450D2C4344
:1038F800A2B2B3B25A43270C7B43350C6F43A4B230
:103908006C431B1902D3012424043F191C041D0C09
:10391800A4187D4124196D41009A91B2ACB261435B
:10392800170C7C432B0C5F4392B25A43A41802D362
:1039380001221204BF182204230C52187B41019C57
:103948006C431B19520ED9010A434401A01A81B2D3
:10395800B2B2514303145A43360C734387B27743C8
:10396800D617D21900277E4136049B191704160C66
:103978007F185E417316ED18F301002680337541F8
:10398800A90F06D16400690AE8055B0A184309D241
:103998002FE00422944480337541A90AA8059B0AA4
:1039A800184326D3404149412404009A019B0D0045
:1039B8005543641B4343E41A95B286B27543170C0A
:1039C8007E43030C5F4392B25A43B61802D30122D6
:1039D8001204BF183204330C52197B4152429C41E5
:1039E800002C02D40022013051414008CA0710437C
:1039F800490802B06246D7079210084BD218084B04
:103A08009A4203D212058918C919F0BD0020002A6C
:103A180001DC3900F0BD01331905F5E7FD030000AD
:103A2800FE070000002200B5203200F010F8080060
:103A380000BD002200B500F00CF8CA179A4200D168
:103A480000BDD8430121C907414000BD00220B1524
:103A58000AD410B5944600F0A7F81414013400DA1B
:103A68000021CB17144C20470020002170476244E6
:103A7800343A0CD40C2A07DA0400914090405242A0
:103A88002032D440214310BDD843D94310BD203241
:103A980007D40C469440524220321141D040204372
:103AA80010BD0800C917203203D4524220321041F9
:103AB80010BD1800190010BD8F3800204A00520DA3
:103AC800144BD21A13DDFF2A1EDAD205CB0FDB07FF
:103AD8001A43C300400F0903490A084310435B0017
:103AE80001D301D0013070474308FBD2704702D0A0
:103AF800C80FC00770470A0312130132F8D1420FEA
:103B0800072AF5D1012200E0FF22C80F0002801821
:103B1800C00570478003000000210A00002104E06E
:103B280000210A00C11704E00022002306E0C04675
:103B38000022CB1758405940C01A994130B5184C4B
:103B4800A21A002903D1010010D00020203A4C15F8
:103B580012D104D2013A001849414C0DFAD3114C44
:103B6800A24204D212058918DB07C91830BDD24316
:103B7800520D00200021F5E703D4013A001849410D
:103B8800FBD50B324405C00A4D052843C90A640019
:103B980003D0002460416141E1E7E0D34408F8E73D
:103BA80032040000FE0700000A0DCC0F531E1B054F
:103BB800C91A520503D3C943404200D30131520DFB
:103BC80003D0531CDB0A07D0121B00206400611CC1
:103BD80089078912803A1203014BD21A70470000F4
:103BE800FF03000051434343C9188C46110C83B2AC
:103BF8004B4310B4040C614392B280B25043624309
:103C08001C041B0C001910BC59411304120CC018D9
:103C1800514161447047000007B548404140484061
:103C280001E0C04607B54200120E03D0FF2A03D1B7
:103C3800420218D8C00DC0054A00120E03D0FF2A50
:103C480003D14A020FD8C90DC9050122414005D444
:103C5800414001D5814207BD884207BD014349184B
:103C680001D0C043001807BD00B5FFF7DBFF01D93D
:103C7800002000BD012000BD01231B064200D21810
:103C880004D84A00D21801D8002070470120704794
:103C9800132310B512481C78FEF720FF0100012CF1
:103CA8000AD003DD80220F4800F048F80E48FEF7DE
:103CB8000DFF0E4B186010BD0A4C5422200000F076
:103CC8003DF80B4B6365A365E36523666366A366EE
:103CD800E36623676367A367E3672362E361E5E756
:103CE8005346000010AC00204C330000DCAE00202E
:103CF800153B002007B5604601880A0A0230DF2A12
:103D0800FAD1C9B2820804D302884088000410435B
:103D180000E00068014A5050039007BD10AC002035
:103D280001480421014B184780A200200D290020DA
:103D3800014B1B681847000080A20020014B5B68FC
:103D48001847000080A200209A4200D28854704789
:103D58007047C046F8B55746DE464E464546E0B57C
:103D680099460A9B07009A460D9B884693460B9CEA
:103D78009B073BD10C9B9C423DD21E1B0B9415000C
:103D88000C005E442A004B46013521002020B8472C
:103D9800B542F7D1A0460B9C002C20D045463619D9
:103DA8005346321B013C185D29004B46B847002C8E
:103DB800F6D12B00350098460D9B9B070FD55B4627
:103DC800EC1A0C9BA3420AD9464698462A004B4651
:103DD800310020200134B84701354445F6D3280086
:103DE800F0BCBB46B246A946A046F8BD1600150071
:103DF800002CD3D1E0E71600002CCFD11500EEE758
:103E0800F0B54F464646D646C0B584B098460EAB88
:103E18001B7894469946129B0D9C109F119E9A07F9
:103E280025D4002E65D1BC4221D201221A409246E7
:103E3800202C00D1E9E00C9A551E302202E0202CFB
:103E480000D17BE001342A55A742F8D85246002A0F
:103E58000DD0B4420BD20C9A551E3022202C02D120
:103E680071E0202C2DD001342A55B442F9D1DA065C
:103E78003CD55A052ED4002C28D10F9A102A00D1EF
:103E8800B6E0022A00D1BCE030220C9C227001244A
:103E98004A46002A65D15A0700D499E02B220C9D86
:103EA8002A55013403930C9B6246009302964346BD
:103EB8000194FFF74FFF04B0E0BCBA46B146A846EC
:103EC800F0BD2024DA06EDD55A0503D4A74266D002
:103ED800B44264D00F9A102A71D0022A57D0202CED
:103EE800E0D02200013430250C9FBD54202CD9D0BD
:103EF800CEE7012215001D40AA461A4236D04A468E
:103F0800002A4AD10C321A4247D1BC42A1D2202CF5
:103F180091D1202E17D82024DA06C3D55A051BD4F0
:103F2800202F01D0202ED5D11F220F9D102D6FD00C
:103F3800022DD8D162250C9FBD54D0E75246002AE5
:103F480079D0202EBDD92024DA06ABD55A0503D462
:103F5800202FE9D0202EE7D00F9A102AA2D12024B2
:103F6800A0E72D220C9D2A5501349BE7BC4200D3C3
:103F78007DE7202C00D05EE7DA06F0D55A05EED4AE
:103F8800202F62D0202EEAD134001F22CDE7202C2A
:103F980000D187E722000134CCE7013EB5E7621E75
:103FA800012CC2D10F9A102A00D06AE79A063BD595
:103FB80058220C9C2270283A6270022468E79A06FC
:103FC8000ED4202CCBD078220C9D2A55013486E7BC
:103FD8001A0700D466E720220C9D2A55013461E7B0
:103FE800202CBCD058250C9A12191570013476E78C
:103FF8009A0608D558220C9C22703022627002243E
:1040080046E76032F7E77822F5E7002A83D1B3E77D
:10401800A21E013C9D0603D478250C9FBD5460E781
:1040280058250C9FBD545CE778220C9C2270483AB6
:10403800627002242CE7DA0600D433E75A058BD4E1
:10404800202F00D044E71F226FE73C001F226CE7B7
:1040580010B5002800D110BD01F064FBFBE7C04695
:10406800F0B557464E464546DE46E0B599B082461D
:10407800894690460893229A239B10001900FFF75F
:1040880090F9002800D0CDE0229823990122D94B3D
:104098005242FFF781F9002800D0C3E02298239903
:1040A8000122D54B5242FFF761F9002800D0B9E050
:1040B8002298239900220023FFF758F9002800D0FE
:1040C800F1E1229E239F8023269ADB001A400D925D
:1040D800269A1A4201D1062324938023269A1B018B
:1040E8001A403B0093460996334300D0B3E0002AB8
:1040F80000D0C2E1002300240A930B940023042576
:104108000993259B0024AB4200D95C1B0223269A05
:104118001A400C92269A134203D06B426B415B42C1
:104128001C40099B002B07D00A9A0B9B30003900D2
:10413800FFF7B3F806000F00229823990022002306
:10414800FFF714F9002803D0802109067B181F0007
:10415800269AAA4B009601971340089E0493249B25
:1041680003940293424633004946504600F0AAF9A8
:104178000400002D67D02020269A494602401300EB
:104188005A4253415B42621C18400A923300220093
:104198004530D047099A6F1ED317D4185C40D30F07
:1041A8009B46002501E0202D13D008AA94461F2322
:1041B800200063440A2101355E19FEF721FE3031E3
:1041C800317020000A21FEF71BFE26000400092E8C
:1041D800E9D805230693002304930A3303935B4627
:1041E800089E029310AB0A9A009349463300504642
:1041F80005970195FFF704FE0C9A0400002A22D0C7
:104208004246851A259AAA421DD9B0465746160035
:1042180022004346494620200135B8470134AE42C2
:10422800F6D810E0269B42460493259B4946039303
:10423800249B50460293229B239C00930194089B45
:1042480000F040F90400200019B0F0BCBB46B246AB
:10425800A946A046F0BD6A4B78009C46400D6044D4
:10426800FFF7B0F8674A684BFFF735F8674A684BBD
:10427800FFF70AF8674A3B031B0B1A4304000D00BB
:1042880009981100644B0022FEF7F5FF634A644B5E
:10429800FFF721F802000B0020002900FEF7F4FFC9
:1042A800FFF7A8F80990FFF78DF85E4A5E4B040007
:1042B8000D00FFF710F800225C4BFEF7E5FFFFF753
:1042C80099F85B4A5B4B29000C902000FFF703F834
:1042D80004000C980D00FFF775F8574A574BFEF786
:1042E800FAFF02000B0020002900FEF7C4FF0400BB
:1042F8000D0002000B000A940B95FEF7ECFF04007A
:104308000D000A980B9902000B00FEF7BDFF002272
:104318000E900F914A4B20002900FEF7BEFF0022A5
:10432800484BFEF7B1FF02000B0020002900FEF702
:10433800B4FF0022444BFEF7A7FF02000B00200049
:104348002900FEF7AAFF0A9A0B9B0D0080210400A2
:10435800C9050020FEF78FFF02000B00200029008E
:10436800FEF792FF02000B000E980F99FEF795FFDB
:104378000022284BFEF788FF344B0C9C9C46644473
:1043880023050022FEF7A7FF04000D0002000B0022
:10439800300039000A940B95FEF7E8FF00285DD13C
:1043A80023002A00C625099963318D42AD4159463B
:1043B8006D420435002900D1A3E6134363D03000D1
:1043C8003900234A234BFEF7DFFF002807D00022DD
:1043D80030003900204BFEF7C9FF002853D1249B39
:1043E800002B00D18DE60D9B5A1E9341249AD31AB7
:1043F800249386E6FFFFEF7FFFFFEFFFFFF7FFFF46
:1044080001FCFFFFFB799F501344D33FB3C8608B77
:10441800288AC63F0000F03F0000F83F61436F6301
:10442800A787D23F71A379094F930A400000E03F64
:104438001655B5BBB16B0240EF39FAFE422EE63F86
:1044480000002C400000244000001840FF0300003A
:104458002D431CEBE2361A3F80842E41099B002233
:10446800013B09932000164B2900FEF716FF0A00AE
:10447800010003000A910B9294E7002300240A9399
:104488000B9400230993249A099B9A4214DDD31AAA
:10449800013B24938023269ADB001A43002300253E
:1044A800269209932DE6802212069446229B1E002E
:1044B800239B63441F0006E600232493EAE7C046D3
:1044C80000002440F0B54546DE464E465746E0B566
:1044D80095B08B46904699461E9A1F9B0A901900E4
:1044E8001000209DFEF75DFF002800D0B0E11E9867
:1044F8001F990122C74B5242FEF738FF002800D00F
:1045080037E11E981F990122C34B5242FEF744FF20
:10451800002800D0A7E01E981F990022BF4BFEF785
:104528003BFF002800D088E01E981F990022BC4B52
:10453800FEF71CFF002800D07FE01E981F9900227C
:104548000023FEF713FF002800D0FAE000230B93A6
:104558008023229C229ADB001C401A4200D102E1EF
:10456800092D00D87CE106A98C462C0017220023CF
:104578003021093C62440133D154EF1A202B00D179
:1045880032E1A342F7D10022A44B069207931E986A
:104598001F99FEF72FFF0500FEF714FF02000B001E
:1045A8001E981F99FEF767FE069A079BFEF793FE73
:1045B80008900991FEF742FF0600FEF7FFFE020091
:1045C8000B0008980999FEF756FE0022954B0890B3
:1045D8000991FEF7E1FE002800D1D2E00136300053
:1045E800FEF7ECFE069A079BFEF7CEFE002801D0E8
:1045F80000260135AA46002F00D098E02800FEF7D3
:10460800E1FE02000B001E981F99FEF734FE854B51
:10461800002206000F00FEF7A9FE0CAB9A46002800
:1046280045D10022300039007E4BFEF7B5FE002848
:104638003DD1EB073BD5013539E0229B4246049337
:10464800219B594603930A981E9B1F9C0295009331
:1046580001944B46FFF704FD15B0F0BCBB46B246CB
:10466800A946A046F0BD229B5B0767D403226E4B88
:1046780022990192039121990291009342464B4657
:1046880059460A98FFF766FBE6E706AA94461723F9
:10469800280063440A2101341E19FEF789FB3031D2
:1046A800280031700A21FEF783FB051E76D0202CE6
:1046B800EBD10323229A1340012B1DD1219B002B00
:1046C8001AD00B9B002B00D0BBE0229A0C3313426C
:1046D80000D0B6E0219BA34200D887E006AB9C46F9
:1046E80017223023624404E02199013413558C4287
:1046F80059D0202CF8D12024229B01940393219B8C
:1047080002935346B9E706AA944617230A2163443D
:10471800300001341D19FEF773FB30312970300069
:104728000A21013FFEF76CFB092E46D90600202C12
:10473800E9D155460CAB20249A46B8E704223B4BF6
:1047480096E71E9A1F9B00200021FEF794FD012387
:104758000B938023229C229ADB001E901F911C4001
:104768001A4200D0FCE60022314B06270692079336
:104778000DE7229B0393219B0293042301932D4B66
:104788007BE7002208980999264BFEF7EFFD0028E1
:1047980000D02FE7002E4FD101362BE70323229AB2
:1047A8001340012B66D0202CA6D00B9B002B1FD0CA
:1047B8002D235246135501349EE75546202CB9D077
:1047C80030233A19002F08D0172006A901340918F8
:1047D8000B55202CAED09442F6D10CAB9A462E2322
:1047E80052461355013462E72024CCE6202C83D0AE
:1047F800229B5B0708D4229B1B0700D47CE720235D
:1048080052461355013477E72B235246135501348A
:1048180072E7C046FFFFEFFFFFFFEF7F65CDCD4199
:1048280065CDCDC10000E03F449800203C980020B1
:1048380080842E414C980020F30700D4DAE6013634
:10484800D8E6219B013B2193A34200D946E7AAE77A
:10485800229B0393219B029303230193074B0CE7AD
:10486800074BEA009B185C681B682F0006930794A7
:1048780000248CE6219B002B95D022E74898002045
:10488800A09D0020F0B55746DE464E464546E0B5A9
:10489800A5B01F002E9B91460D93CA4ACA4B82466B
:1048A8008B461A60002900D129E2002338789846FF
:1048B800002800D12BE2C54B44460C93C44B554607
:1048C8004E460E930AE0631C984622003300594670
:1048D800A84744463878002800D187E001372528C2
:1048E800F1D108239A46043B9946023B9846013B7E
:1048F80000229C460B943878791C0300203BDBB2DD
:10490800102B03D80C9C9B00E3589F460300303BB8
:104918000B9C0B92092B3AD9002398462A2800D1E0
:10492800DDE000239A462E284BD00300683BDBB21B
:10493800122B1ED80E9A9B00D3589F4663460F0031
:104948001A43D8E743460F001A43D4E74B460F00F3
:104958001A43D0E710230F001A43CCE753460F0041
:104968001A43C8E780235B000B9A78781A430B92A6
:1049780001310F0067284FD82428A4D90300253B0C
:10498800DBB2422B9FD893499B00CB589F4600230C
:1049980098460B9B47469C4600E00131BB00DB195B
:1049A8005B001F180878303F0300303B092BF4D90F
:1049B80063460B930023B8469A460F0001312E2810
:1049C800B3D180200B9AC00002430B92302252428E
:1049D800944678780B0084446246092A00D8AAE1F4
:1049E8002A2800D1B9E10F0001319EE7A046AA4666
:1049F800B146C84503D301235B424B4498464B4616
:104A0800424659460020D047200025B0F0BCBB469E
:104A1800B246A946A046F0BD01006939C9B20F29BE
:104A280000D950E701238B409C466B4B994663465F
:104A38004A4613400F9362464B461A4200D068E13B
:104A48000A2956D0072900D03DE70D9B02CB98468E
:104A5800002900D092E10B9B10211A008A43100014
:104A680011310843814680201A00C000024011001D
:104A780003421CD114AB9C461F220F2362440D95A0
:104A88009C4615000F9B0B9402E0202B0CD01100C4
:104A980064460C4020003730092C00D80738013311
:104AA800E8540A090F29F0D80B9C0D9D0F934B462B
:104AB8000822069353460592083203920022049373
:104AC8000F9B029201931CAB2200009359463300BE
:104AD8002800FFF795F9434604000D93FAE60D9B6D
:104AE80004CB9046002A79DB78780D930F000131CA
:104AF80017E70D9B02CB14930B789C46180053467E
:104B0800002B00D134E1002815D05346013B013376
:104B180099460D940B9C89444A460B00A14601E036
:104B2800934203D05C780133002CF9D14A465B1AD2
:104B38000D9C0B920F938023DB0099460B9A134030
:104B48000D934B461A4204D00F9B534501D9534647
:104B58000F93022399460B9A13400B934B4613422B
:104B680000D1F5E16346002B00D1D6E10D9B002B67
:104B780000D182E10B1BD14631009A463B00A1448B
:104B88002E005F464D4622009B46894609E04B466B
:104B98003900541CB0475346185D002800D192E1F3
:104BA80022009542F3D14B465A46A946BB463500EA
:104BB80017001E004C460B9B002B00D0ADE1149B48
:104BC8000D9387E6A5460020C8AE0020049C00206F
:104BD800489C0020949C0020419000000B9A2838A3
:104BE80002430B9242465242787890460F000D934A
:104BF800013196E678786C2800D15DE180230B9A24
:104C08005B001A430B920131B3E680239B00ABE6AD
:104C18007878682800D148E180230B9A01311A433B
:104C28000B92A6E6672800D1B2E0472800D11AE126
:104C3800452800D11CE10B9A0721049242460D9B9E
:104C48000392073352468B43190002920CC928007D
:104C5800009201930D91220033005946FFF700FAA4
:104C6800040037E6462800D18DE00B9A072104920C
:104C780042460D9B0392073352468B43190002921A
:104C88000CC92800009201930D9122003300594667
:104C9800FFF718FC04001DE6631C98462200330049
:104CA80059462520A847444614E60D9B04330F9324
:104CB800631C99460B9B9A0700D40AE10D9B2200BE
:104CC800187859463300A84743464444012B00D876
:104CD8006FE1B0462E0025004C46B9465F462200DB
:104CE8004346013439002020B047AC42F7D12C00AC
:104CF800BB4635004F4646460F9B0D93EAE5D64B1B
:104D080038789A4600239846002800D0D3E5002436
:104D18006FE66F2842D000D8FDE11023782800D133
:104D28009BE00B9A9A430B920A239C460023149308
:104D38000A330F9338E057460B9AB900C91949004E
:104D480001330F181878303F010030390929F4D998
:104D5800BA460B921F00591CE7E50D9BB87804CBA7
:104D68000237D143C9170A4092460D93791CDCE5F6
:104D7800002800D1DFE602235B42C8E621200B9A17
:104D88000243914676E620230B9A1A430B926CE76E
:104D980080230B9A1B011A430B924CE708239C466D
:104DA8000023149308330F930B9880230200DB0031
:104DB8001A4011000200184200D080E00C239A43E8
:104DC8001000802302009B001A400B92184200D06A
:104DD800F1E0802302005B001A4091460D9A0432EC
:104DE8001492184200D0C3E2430600D5D7E0030668
:104DF80000D421E30D9B1B880993002B00D02DE1E3
:104E080010339843002900D128E1002399464346EE
:104E18000593534604930F9B069003930023029334
:104E28004B4601931CAB22000093594633002800DF
:104E3800FEF7E6FF0400C2E6582809D0622800D031
:104E4800E3E202239C460023149302330F93ABE75B
:104E580020230B9A1A430B92103B9C460023149371
:104E680010330F93A0E780230B9A1B011A430B9270
:104E780020230B9A1A430B92DDE60B1B9A460F9BD5
:104E880099463B0037005E469B4622003B003100B6
:104E9800A84753460134185D0028F6D14B460F93B6
:104EA8005B46B3463E001F0085E6C0230B9AB878E0
:104EB8001A430B92F91C5CE5C0239B00F6E70D230F
:104EC8009A4310007DE75B463500BB464E461F00FF
:104ED80071E64346012B66D9631E434432002E0017
:104EE8001D003B00A2465F4691469B4622004B466A
:104EF800013439002020B047AC42F7D15B46350079
:104F0800BB464E46A14654461F000D9B4A4618789C
:104F1800594633004444A847EEE60F9BA1469845FE
:104F280000D84CE64444E41AB0462E0025004C460E
:104F3800B9465F4622004346013439002020B04775
:104F4800AC42F7D12C00BB4635004F46464636E604
:104F58000F98804500D873E24346E218131A3200CE
:104F68002E001D003B0091465F469B460F91220094
:104F78004B46013439002020B047AC42F7D15B469C
:104F8800BB461F0043460F9901330F930B7835003A
:104F98009C464E466046002800D0E7E50FE60D9B8C
:104FA8001B78099329E70D9B22001878594633008E
:104FB800A8474C46A0E60D9AFA3BFF3B07329A43B6
:104FC8000133994691444B460D93136852681592E4
:104FD8001A4306D11032904300220992002900D0CA
:104FE80083E06122810600D54122D2B20A9214AA36
:104FF80091460A9A00210A3A0B9242461792524663
:1050080018925A46B24609911E001F31149B494412
:10501800BB4616941A950024674698468946159DFE
:1050280019901B920AE03032D2B24B4601341A551D
:10503800A8454CD0202C4CD006000D003A00002387
:1050480030002900FDF71AFFD2B2092AEBD90B9BD1
:105058009C466244D2B2E8E7713B00206123820695
:1050680000D54123DBB20A3B0B93434614A91F2208
:105078008C46159353466244B2460D9417974C4696
:105088008046A9461700099D0F9E169308E0303305
:10509800DBB201343B55B5420ED3202C0CD00500B1
:1050A80031002800FDF7ACFECBB20929EFD90B9AE5
:1050B80094466344DBB2ECE7159B40469846169B42
:1050C8004D465646A1469A460D9C179F9FE6B74205
:1050D800B0D9179B56469846189B5F469A461B9B25
:1050E80009949B46169C19981A9D43460593534666
:1050F80004930F9B0690039300230293099B01934B
:105108001CAB22000093594633002800FEF778FEB6
:105118000400FFF7DFFB10230B9A9A430F926928CC
:1051280000D091E10B9980230A00DB001A4010009F
:105138000A00194203D0112118008A430F920F9ACE
:10514800802311009B0019408C461A425BD18023B2
:1051580011005B00194089460D9904310B911A42E0
:1051680000D0B2E013005B0600D4EDE00D9B1B7885
:105178001A00D90F0D91002B00D1A3E0100014AA3A
:10518800944642461F23159252466344A846BA469F
:105198004D461494B14604001F00169201E0202DDC
:1051A8000FD020000A21FDF72BFE01357E19303182
:1051B800317020000A21FDF723FE26000400092E85
:1051C800EDD8159B4E46A94645469846169B574628
:1051D8009A46149C0F9B06934346059353460493A3
:1051E8000A2303930D9B02934B4601931CAB2200A9
:1051F8000093594633002800FEF702FE0B9B04007B
:105208000D93FFF767FB07220D9B0733934301328A
:1052180094469C4462460D920CCBD90F0B91110019
:10522800194300D19BE0D917139112915140109165
:1052380013995940119110981199129A139B801A39
:1052480099411090119114AA944642460023159250
:1052580052469946169232001F336344A8464E467A
:10526800BA4614941F00109C119D914601E0202E0F
:1052780010D0200029000A220023FDF7FFFD013687
:1052880030322B00BA550D0022000400002BEED15D
:10529800092AECD8159B10941195454698464B461B
:1052A800169AB14657461E009246149C0F9B0693C9
:1052B80043460593534604930A2303930B9B029397
:1052C8004B461CE7002885D159E70D9B1B68DA0F70
:1052D8001100002B00D1A6E0DA179818504014AA44
:1052E80091461F2342464B44A8460D941697040046
:1052F8006546B1461F001491159201E0202D0FD08C
:1053080020000A21FDF77CFD01357E19303131700E
:1053180020000A21FDF774FD26000400092EEDD8AF
:10532800159BAC4645469846149B4E4619000D9C65
:10533800169F0F9B02910693434605935346049389
:105348000A230393634650E713001B066ED50D9B93
:1053580000229B5ED9175A184A4092B209E70023E7
:1053680099460028A2D100220023109211936AE7DF
:105378000D9B1B689946002B03D1103398430029D5
:1053880038D16123820600D54123DBB20A3B0D9355
:1053980043461693534614A91F228C4617932B0095
:1053A80062444D46B24615941897804617009946B0
:1053B8000B9C0F9E08E03033DBB201343B55B542FD
:1053C8000ED3202C0CD0050031002800FDF718FD65
:1053D800CBB20929EFD90D9A94466344DBB2ECE7C6
:1053E800169B40469846179B56464D469A460B9440
:1053F800189F159C43460593534604930F9B0690AC
:105408000393002302930B9B0BE50B9980230A005F
:10541800DB001A4010000A00194200D08BE6102366
:105428009A430F928BE6002883D158E70D9B1B689F
:10543800D9175A184A409CE60D9B1B680993DCE46F
:10544800030001330F93A5E50B926DE410B5054CED
:1054580082B0009313000A0001002000FFF712FA3F
:1054680002B010BD693B00200FB430B50C4985B0BF
:1054780008AA08CA0D680392002D0CD000920122D8
:10548800084C5242200002A9A847012005B030BCB0
:1054980008BC04B01847180000F090F90020F5E7A0
:1054A800C8AE0020713E002010B5094A03001468F8
:1054B80084B0002C08D0012200910648524203A96A
:1054C800A047012004B010BD00F078F90020F9E7EA
:1054D800C8AE0020713E002000BEFDE77047C04600
:1054E800094A03001068002805D00849C3188B42F0
:1054F80007D81360704706480449C31810608B42E8
:10550800F7D901204042F5E7B8AE0020000004209A
:10551800ECAE002010B5FFF7DFFFC04630B50D0038
:1055280083B01900002A0BD0074B084C0192009356
:1055380002002B002000FFF797FF0120FFF7CCFFA8
:10554800034B1A00F1E7C0465498002064980020E5
:105558003093002070B5FDF707FB074D074EB542A5
:1055680009D20024013E761BB60808CD98472300CF
:105578000134B342F9D170BD8CA900208CA9002058
:10558800030010B5080011001B68984710BDC046FD
:10559800F0B5C64600B5437D07000D001600002B88
:1055A80038D0002A2EDD00216A1E90466A5C037DF1
:1055B8004C1C00200A2A0CD0A64216D043461B5D7C
:1055C80021000D3B5A4253416A5CDBB24C1C0A2A4B
:1055D800F2D1002BF0D1884217DB022110483B683A
:1055E8009847A64207D02000E8E7864203DD311A33
:1055F8003B6828189847AD19013D2B780D3B5A4256
:1056080053413B7580BCB846F0BD091A3B68281861
:105618009847E2E70368110028009847F2E7C04678
:10562800F09D0020F0B5DE4657464E464546E0B5AB
:1056380085B017001C0006000D00FCF7B1FF002321
:10564800314A12184B41802109068B4202D30122AC
:105658002E4B52422E4908008A4603F0FBFA01906D
:105668006B1C03D1300002F0ABFB0500002C26D0E8
:10567800284B9846284B1C68002C15D0002F21D1A8
:10568800264F02E02469002C0ED02368002BF9D0A5
:105698003B68002B01D09C42F4D120002A00310045
:1056A800C0472469002CF0D1019B002B28D1280089
:1056B80005B0F0BCBB46B246A946A046F0BD184BA3
:1056C8009846D7E7154B994602ABDF1D0A239B4640
:1056D80002E02469002CE7D02368002BF9D04B4660
:1056E8001B68002B01D0A342F3D12A00310020000F
:1056F800C0475B460122390020003B70C047E8E7FD
:10570800504603F0C1FAD2E740420F00FFFFFF7F87
:1057180048A90020B1530020B0AE0020B4AE00204C
:10572800A1530020F0B5CE46474680B583B06B46FE
:105738000600DD1D2870FCF733FF00231A4A1218F3
:105748004B41802109068B4202D30122174B52425A
:1057580017490800884603F07DFA164B81461C68F5
:10576800002C14D0144F02E02469002C0FD02368B9
:10577800002BF9D03B68002B01D09C42F4D12000CB
:1057880001222900FFF704FF2469002CEFD14B46C2
:10579800002B05D1300003B0C0BCB946B046F0BDFF
:1057A800404603F071FAF5E740420F00FFFFFF7F24
:1057B80048A90020B0AE0020B4AE002070B50400A7
:1057C80002F0FEFA01230100050001222000FFF784
:1057D80029FF084B1C68002C06D06368002B05D0F5
:1057E80098472469002CF8D1280070BD2469002C42
:1057F800F3D1F9E7B0AE0020F0B5DE4657464E4685
:105808004546E0B5070083B00CA801920278002055
:105818003C689B46E066616001219146E166002B89
:1058280034DD5A1E90468022520094468026402538
:10583800616F1029FCD00021002801D13979890233
:1058480040451DD0624611432161A159616B0D424B
:105858000BD00120636D40424B463B7103B0F0BC56
:10586800BB46B246A946A046F0BDA16F0029ECD0C0
:105878002169019B195401308345EDD03C68D7E775
:105888004B4601225A4053021943DBE70020E3E765
:10589800F0B557464E46DE4645468446E0B583B0E9
:1058A8001F000CAB18786346914600221B680190D4
:1058B800DA6601325960DA66002F4FDD7A1E9046AB
:1058C8006246127901269202802493463A004640A5
:1058D800760280253700002046461021A2469046D1
:1058E800AD00841B624254414A4664423C400094E5
:1058F8005C46125C2243009C22431A615A6B114297
:10590800FCD052469C58002C10D1B04221D0002225
:10591800013093468045E4D16346019A1A7103B079
:10592800F0BCBB46B246A946A046F0BD5A6D01225E
:1059380093465A6B2A42FCD01A6E5A46002AE6D081
:10594800002C03D0E30701D42407E5D4012040420A
:10595800E2E7019A002ADAD19346EAE70020DBE77A
:10596800F8B5DE4657464E4645468346E0B505201F
:105978000C00FDF74BF80600600821008019FDF7C0
:105988003FFA430098468044070005214046FDF74A
:1059980037FA3B1A9A461E4B8146700080199C4282
:1059A80031D81C49FDF72CFA451C5B461C680023BE
:1059B800E366226804335A400233134080225201BE
:1059C800A21813605346E3614B4623624346012005
:1059D8004F2B03D950214046FDF712FAA023E0507F
:1059E800E36F39005D400C4B2D042D0CE3181D604E
:1059F80001233000E366FDF703FAF0BCBB46B2466C
:105A0800A946A046F8BD0549FDF7FAF9451CCCE7BB
:105A18003F420F00809698007C10000040787D017E
:105A2800104A70B5821A531E9A41072352429A436C
:105A38000D4B10321A600D4B0D4C1A60150023687F
:105A48009D432B1EFAD166240268FF340571D56682
:105A58001460633C8833FF3CD5639563D450FFF7EB
:105A68007FFF70BD90A2002000E0004000F00040E1
:105A780008C0004010B582B004AC24780094FFF749
:105A880007FF02B010BDC04610B582B004AC247840
:105A98000094FFF7B1FE02B010BDC0467047C04683
:105AA80070B516000D0002F003FF002E0DD06B2319
:105AB8006A00520D9B1A002B07DD0024034A1B05C0
:105AC8009D182B002200FDF706FC70BD0000F03F7A
